:100000000C942A000C9434000C9434000C943400AA
:100010000C9434000C9434000C9434000C94340090
:100020000C9434000C9434000C9434000C94340080
:100030000C9434000C9434000C9434000C94340070
:100040000C9434000C9434000C9434000C94340060
:100050000C94340011241FBECFE5D8E0DEBFCDBF25
:100060000E947F010C94BA010C940000442319F003
:100070004130C9F10895813091F028F08230D9F0F3
:10008000833029F108952AB381E090E002C0880FFF
:10009000991F6A95E2F7809582238ABB089527B35A
:1000A00081E090E002C0880F991F6A95E2F7809581
:1000B000822387BB089524B381E090E002C0880FBB
:1000C000991F6A95E2F78095822384BB089521B336
:1000D00081E090E002C0880F991F6A95E2F7809551
:1000E000822381BB0895813089F028F08230C9F0E5
:1000F000833011F108952AB381E090E002C0880FA7
:10010000991F6A95E2F7822B8ABB089527B381E095
:1001100090E002C0880F991F6A95E2F7822B87BB97
:10012000089524B381E090E002C0880F991F6A957A
:10013000E2F7822B84BB089521B381E090E002C0F6
:10014000880F991F6A95E2F7822B81BB089544239B
:1001500019F04130C9F10895813091F028F08230D2
:10016000D9F0833029F108952BB381E090E002C0EB
:10017000880F991F6A95E2F7809582238BBB0895BB
:1001800028B381E090E002C0880F991F6A95E2F7DA
:100190008095822388BB089525B381E090E002C05A
:1001A000880F991F6A95E2F78095822385BB089591
:1001B00022B381E090E002C0880F991F6A95E2F7B0
:1001C0008095822382BB0895813089F028F08230A7
:1001D000C9F0833011F108952BB381E090E002C0A3
:1001E000880F991F6A95E2F7822B8BBB089528B37D
:1001F00081E090E002C0880F991F6A95E2F7822B98
:1002000088BB089525B381E090E002C0880F991F54
:100210006A95E2F7822B85BB089522B381E090E0D6
:1002200002C0880F991F6A95E2F7822B82BB08955E
:10023000813089F028F08230C9F0833011F10895BF
:100240002BB381E090E002C0880F991F6A95E2F716
:1002500082278BBB089528B381E090E002C0880F0D
:10026000991F6A95E2F7822788BB089525B381E03C
:1002700090E002C0880F991F6A95E2F7822785BB3C
:10028000089522B381E090E002C0880F991F6A951B
:10029000E2F7822782BB089541E062E082E00E949B
:1002A0003600089540E062E082E00E94A7000895D1
:1002B00062E082E00E941801089541E067E082E078
:1002C0000E943600089540E067E082E00E94A700A7
:1002D000089567E082E00E941801089541E063E01C
:1002E00083E00E943600089540E063E083E00E94CE
:1002F000A700089563E083E00E94180108950E941A
:100300004C010E945D010E946E010E94A1010E94A9
:1003100052010E9463010E94740180E00E94B401B6
:100320000E94B001813419F40E945801F9CF82343F
:1003300019F40E946901F4CF833491F70E947A0185
:10034000EFCF87B38F7D87BB87B3806487BB87B3CD
:100350008F7787BB87B38F7E87BB83E48DB9089582
:10036000779BFECF8FB10895811103C088B38F7E34
:0803700088BB0895F894FFCF4B
:00000001FF
